:020000040000FA
:040000000128FE2FA6
:100ED200163021009700080032009101920193011F
:100EE20094019501960108009F3025009300063079
:100EF20092004030910008000D3020009E009D01BC
:100F0200911006309F0008006230320099009B0168
:100F12009D0107309F009E010800FF30F00503305D
:100F2200F1052500131E962F972F9C2F0630F035C2
:100F3200F10D890B982F710892007008910008003A
:100F420087316D2787318731B427873187318527EC
:100F52008731873169278731873175278731873113
:100F62007D278731080022008C018E013730210055
:100F72008C003B308E003F3023008E0033308C00DB
:100F820024008C018E0125008C018E013730260051
:100F92008C003F308E003F3027008C003F308E00A7
:100FA2000C303D00A20008008731A1278731C730ED
:100FB200F0000030F10087318E2787310B30F300CB
:100FC2002630F2005E30890BE42FF20BE42FF30B94
:100FD200E42FF930F0000030F10087318E2787319D
:100FE2000B30F3002630F2005E30890BF62FF20B45
:0E0FF200F62FF30BF62FD82F01282000D52F55
:020000040001F9
:08000E00EC3FF33FFF3FFF3F11
:00000001FF
