:020000040000FA
:040000000128FE2FA6
:100E9E001630210097000800320091019201930153
:100EAE0094019501960108009F3025009300403073
:100EBE009200C03091000800813020009E009D01FC
:100ECE00911005309F0008006030320099009B01A0
:100EDE009D0107309F009E010800FF30F005033092
:100EEE00F1052500131E7C2F7D2F822F0630F03545
:100EFE00F10D890B7E2F7108920070089100080089
:100F0E0087315327873187319A27873187316B276E
:100F1E00873187314F27873187315B27873187317B
:100F2E0063278731080022008C018E0137302100A3
:100F3E008C003B308E003F3023008E0033308C000F
:100F4E0024008C018E0125008C018E013730260085
:100F5E008C003F308E003F3027008C003F308E00DB
:100F6E000C303D00A20008008731872787316130A1
:100F7E00F3000030F4006130F5000030F6009630DA
:100F8E00F0000030F1008731742787316830F200AD
:100F9E00E430890BD02FF20BD02F0032F930F00055
:100FAE000030F1008731742787316830F200E43069
:100FBE00890BDF2FF20BDF2F0032750820009E0009
:100FCE00FF30F507FF30F63D7608803AF2008030AC
:100FDE007202031DF42F403075020318F72FF82FFD
:100FEE00C62F7408F6007308F500C62F01282000DE
:020FFE00BB2F07
:020000040001F9
:08000E00EC3FF33FFF3FFF3F11
:00000001FF
