:020000040000FA
:040000000128FE2FA6
:100E7C001630210097000800320091019201930175
:100E8C0094019501960108009F3025009300403095
:100E9C009200C03091000800813020009E009D011E
:100EAC00911005309F0008006030320099009B01C2
:100EBC009D0107309F009E010800FF30F0050330B4
:100ECC00F1052500131E6B2F6C2F712F0630F0359A
:100EDC00F10D890B6D2F71089200700891000800BC
:100EEC0087314227873187318927873187315A27C4
:100EFC00873187313E27873187314A2787318731C0
:100F0C0052278731080022008C018E0137302100D6
:100F1C008C003B308E003F3023008E0033308C0031
:100F2C0024008C018E0125008C018E0137302600A7
:100F3C008C003F308E003F3027008C003F308E00FD
:100F4C000C303D00A2000800873176278731210044
:100F5C000E108E106130F4000030F5006130F60098
:100F6C000030F70022000E148E109630F000003086
:100F7C00F1008731632787310530F3000F30F20021
:100F8C00F130890BC72FF20BC72FF30BC72F0000C3
:100F9C0022000E108E14F930F0000030F100873171
:100FAC00632787310530F3000F30F200F130890BE5
:100FBC00DD2FF20BDD2FF30BDD2F00007608200068
:100FCC009E00FF30F607FF30F73D7708803AF200BD
:100FDC0080307202031DF42F403076020318F72F75
:100FEC00F82FB82F7508F7007408F600B82F0128F1
:040FFC002000AA2FF8
:020000040001F9
:08000E00EC3FF33FFF3FFF3F11
:00000001FF
