:020000040000FA
:040000000128FE2FA6
:100ECE001630210097000800320091019201930123
:100EDE0094019501960108009F3025009300413042
:100EEE009200C03091000800833020009E009D01CA
:100EFE00911005309F0008006030320099009B0170
:100F0E009D0107309F009E010800FF30F005033061
:100F1E00F1052500131E942F952F9A2F0630F035CC
:100F2E00F10D890B962F7108920070089100080040
:100F3E0087316B2787318731B227873187318327F6
:100F4E00873187316727873187317327873187311B
:100F5E007B278731080022008C018E01373021005B
:100F6E008C003B308E003F3023008E0033308C00DF
:100F7E0024008C018E0125008C018E013730260055
:100F8E008C003F308E003F3027008C003F308E00AB
:100F9E000C303D00A200080087319F278731C730F3
:100FAE00F0000030F10087318C2787312930F300B3
:100FBE009630F2007F30890BE22FF20BE22FF30B0B
:100FCE00E22F0000F930F0000030F10087318C275D
:100FDE0087312930F3009630F2007F30890BF52FE0
:100FEE00F20BF52FF30BF52F0000D62F0128200062
:020FFE00D32FEF
:020000040001F9
:08000E00EC3FF33FFF3FFF3F11
:00000001FF
